{
  "_format": "hh-sol-artifact-1",
  "contractName": "SushiXSwap",
  "sourceName": "contracts/SushiXSwap.sol",
  "abi": [
    {
      "inputs": [
        {
          "internalType": "contract IBentoBoxMinimal",
          "name": "_bentoBox",
          "type": "address"
        },
        {
          "internalType": "contract IStargateRouter",
          "name": "_stargateRouter",
          "type": "address"
        },
        {
          "internalType": "address",
          "name": "_factory",
          "type": "address"
        },
        {
          "internalType": "bytes32",
          "name": "_pairCodeHash",
          "type": "bytes32"
        },
        {
          "internalType": "contract IStargateWidget",
          "name": "_stargateWidget",
          "type": "address"
        },
        {
          "internalType": "address",
          "name": "_SGETH",
          "type": "address"
        }
      ],
      "stateMutability": "nonpayable",
      "type": "constructor"
    },
    {
      "inputs": [],
      "name": "InsufficientGas",
      "type": "error"
    },
    {
      "inputs": [],
      "name": "NotStargateRouter",
      "type": "error"
    },
    {
      "inputs": [],
      "name": "TooLittleReceived",
      "type": "error"
    },
    {
      "anonymous": false,
      "inputs": [
        {
          "indexed": true,
          "internalType": "bytes32",
          "name": "srcContext",
          "type": "bytes32"
        },
        {
          "indexed": false,
          "internalType": "bool",
          "name": "failed",
          "type": "bool"
        }
      ],
      "name": "StargateSushiXSwapDst",
      "type": "event"
    },
    {
      "anonymous": false,
      "inputs": [
        {
          "indexed": true,
          "internalType": "bytes32",
          "name": "srcContext",
          "type": "bytes32"
        }
      ],
      "name": "StargateSushiXSwapSrc",
      "type": "event"
    },
    {
      "inputs": [],
      "name": "SGETH",
      "outputs": [
        {
          "internalType": "address",
          "name": "",
          "type": "address"
        }
      ],
      "stateMutability": "view",
      "type": "function"
    },
    {
      "inputs": [
        {
          "internalType": "contract IERC20",
          "name": "token",
          "type": "address"
        }
      ],
      "name": "approveToStargateRouter",
      "outputs": [],
      "stateMutability": "nonpayable",
      "type": "function"
    },
    {
      "inputs": [],
      "name": "bentoBox",
      "outputs": [
        {
          "internalType": "contract IBentoBoxMinimal",
          "name": "",
          "type": "address"
        }
      ],
      "stateMutability": "view",
      "type": "function"
    },
    {
      "inputs": [
        {
          "internalType": "uint8[]",
          "name": "actions",
          "type": "uint8[]"
        },
        {
          "internalType": "uint256[]",
          "name": "values",
          "type": "uint256[]"
        },
        {
          "internalType": "bytes[]",
          "name": "datas",
          "type": "bytes[]"
        }
      ],
      "name": "cook",
      "outputs": [],
      "stateMutability": "payable",
      "type": "function"
    },
    {
      "inputs": [],
      "name": "factory",
      "outputs": [
        {
          "internalType": "address",
          "name": "",
          "type": "address"
        }
      ],
      "stateMutability": "view",
      "type": "function"
    },
    {
      "inputs": [
        {
          "internalType": "uint16",
          "name": "_dstChainId",
          "type": "uint16"
        },
        {
          "internalType": "uint8",
          "name": "_functionType",
          "type": "uint8"
        },
        {
          "internalType": "address",
          "name": "_receiver",
          "type": "address"
        },
        {
          "internalType": "uint256",
          "name": "_gas",
          "type": "uint256"
        },
        {
          "internalType": "uint256",
          "name": "_dustAmount",
          "type": "uint256"
        },
        {
          "internalType": "bytes",
          "name": "_payload",
          "type": "bytes"
        }
      ],
      "name": "getFee",
      "outputs": [
        {
          "internalType": "uint256",
          "name": "a",
          "type": "uint256"
        },
        {
          "internalType": "uint256",
          "name": "b",
          "type": "uint256"
        }
      ],
      "stateMutability": "view",
      "type": "function"
    },
    {
      "inputs": [],
      "name": "pairCodeHash",
      "outputs": [
        {
          "internalType": "bytes32",
          "name": "",
          "type": "bytes32"
        }
      ],
      "stateMutability": "view",
      "type": "function"
    },
    {
      "inputs": [
        {
          "internalType": "uint16",
          "name": "",
          "type": "uint16"
        },
        {
          "internalType": "bytes",
          "name": "",
          "type": "bytes"
        },
        {
          "internalType": "uint256",
          "name": "",
          "type": "uint256"
        },
        {
          "internalType": "address",
          "name": "_token",
          "type": "address"
        },
        {
          "internalType": "uint256",
          "name": "amountLD",
          "type": "uint256"
        },
        {
          "internalType": "bytes",
          "name": "payload",
          "type": "bytes"
        }
      ],
      "name": "sgReceive",
      "outputs": [],
      "stateMutability": "nonpayable",
      "type": "function"
    },
    {
      "inputs": [],
      "name": "stargateRouter",
      "outputs": [
        {
          "internalType": "contract IStargateRouter",
          "name": "",
          "type": "address"
        }
      ],
      "stateMutability": "view",
      "type": "function"
    },
    {
      "inputs": [],
      "name": "stargateWidget",
      "outputs": [
        {
          "internalType": "contract IStargateWidget",
          "name": "",
          "type": "address"
        }
      ],
      "stateMutability": "view",
      "type": "function"
    },
    {
      "stateMutability": "payable",
      "type": "receive"
    }
  ],
  "bytecode": "0x6101406040523480156200001257600080fd5b50604051620051aa380380620051aa8339810160408190526200003591620000da565b6001600160a01b03808716608081905281871660a05281841660c05281861660e052610100859052908216610120526040805163577268d960e11b8152905163aee4d1b29160048082019260009290919082900301818387803b1580156200009c57600080fd5b505af1158015620000b1573d6000803e3d6000fd5b5050505050505050505062000162565b6001600160a01b0381168114620000d757600080fd5b50565b60008060008060008060c08789031215620000f457600080fd5b86516200010181620000c1565b60208801519096506200011481620000c1565b60408801519095506200012781620000c1565b6060880151608089015191955093506200014181620000c1565b60a08801519092506200015481620000c1565b809150509295509295509295565b60805160a05160c05160e0516101005161012051614f206200028a6000396000818161027901528181610d8b0152610f5c0152600081816101af0152818161165b0152818161177e0152612f61015260008181610245015281816116380152818161172701528181612efb0152612f3e01526000818161017b01526127de0152600081816101f101528181610b6901528181610cfc015281816110a2015261258001526000818160e8015281816103a1015281816106210152818161064c015281816108350152818161114d0152818161122e015281816112fa015281816113c40152818161195101528181611978015281816119b901528181611bde01528181611df501528181611f3901528181612139015281816122ae01526123e50152614f206000f3fe6080604052600436106100b55760003560e01c8063a9e56f3c11610069578063c45a01551161004e578063c45a015514610233578063cf36fd2414610267578063d1ac35351461029b57600080fd5b8063a9e56f3c146101df578063ab8236f31461021357600080fd5b80636ce4fe031161009a5780636ce4fe03146101345780636f435ac2146101695780639aab92481461019d57600080fd5b8063656f3d64146100c15780636b2ace87146100d657600080fd5b366100bc57005b600080fd5b6100d46100cf366004613b37565b6102bb565b005b3480156100e257600080fd5b5061010a7f000000000000000000000000000000000000000000000000000000000000000081565b60405173ffffffffffffffffffffffffffffffffffffffff90911681526020015b60405180910390f35b34801561014057600080fd5b5061015461014f366004613c4f565b610b64565b6040805192835260208301919091520161012b565b34801561017557600080fd5b5061010a7f000000000000000000000000000000000000000000000000000000000000000081565b3480156101a957600080fd5b506101d17f000000000000000000000000000000000000000000000000000000000000000081565b60405190815260200161012b565b3480156101eb57600080fd5b5061010a7f000000000000000000000000000000000000000000000000000000000000000081565b34801561021f57600080fd5b506100d461022e366004613cd6565b610ce4565b34801561023f57600080fd5b5061010a7f000000000000000000000000000000000000000000000000000000000000000081565b34801561027357600080fd5b5061010a7f000000000000000000000000000000000000000000000000000000000000000081565b3480156102a757600080fd5b506100d46102b6366004613d66565b611086565b825160005b81811015610b5d5760008582815181106102dc576102dc613d8a565b60200260200101519050600060ff168160ff16141561040957600080600080600088878151811061030f5761030f613d8a565b602002602001015180602001905181019061032a9190613dd9565b6040517fc0a47c9300000000000000000000000000000000000000000000000000000000815273ffffffffffffffffffffffffffffffffffffffff8681166004830152306024830152851515604483015260ff851660648301526084820184905260a48201839052959a50939850919650945092507f00000000000000000000000000000000000000000000000000000000000000009091169063c0a47c939060c401600060405180830381600087803b1580156103e757600080fd5b505af11580156103fb573d6000803e3d6000fd5b505050505050505050610b54565b60ff8116600114156104805760008060008087868151811061042d5761042d613d8a565b60200260200101518060200190518101906104489190613e33565b935093509350935061047784338585858e8c8151811061046a5761046a613d8a565b60200260200101516110ea565b50505050610b54565b60ff8116600214156104e35760008060008060008887815181106104a6576104a6613d8a565b60200260200101518060200190518101906104c19190613e7b565b945094509450945094506104d98533868686866111c5565b5050505050610b54565b60ff8116600b141561053a57600080600086858151811061050657610506613d8a565b60200260200101518060200190518101906105219190613ed8565b925092509250610532838383611428565b505050610b54565b60ff8116600314156106805760008060008087868151811061055e5761055e613d8a565b60200260200101518060200190518101906105799190613e33565b9350935093509350816000141561061b576040517f70a0823100000000000000000000000000000000000000000000000000000000815230600482015273ffffffffffffffffffffffffffffffffffffffff8516906370a0823190602401602060405180830381865afa1580156105f4573d6000803e3d6000fd5b505050506040513d601f19601f820116820180604052508101906106189190613f1b565b91505b610646847f00000000000000000000000000000000000000000000000000000000000000008461144f565b610477847f00000000000000000000000000000000000000000000000000000000000000008585858e8c8151811061046a5761046a613d8a565b60ff81166004141561078c5760008060008685815181106106a3576106a3613d8a565b60200260200101518060200190518101906106be9190613ed8565b92509250925080600014156107815773ffffffffffffffffffffffffffffffffffffffff83161561077e576040517f70a0823100000000000000000000000000000000000000000000000000000000815230600482015273ffffffffffffffffffffffffffffffffffffffff8416906370a0823190602401602060405180830381865afa158015610753573d6000803e3d6000fd5b505050506040513d601f19601f820116820180604052508101906107779190613f1b565b9050610781565b50475b61053283838361144f565b60ff8116600514156108b15760008060008060008887815181106107b2576107b2613d8a565b60200260200101518060200190518101906107cd9190613e7b565b945094509450945094508260001480156107e5575081155b156108a3576040517ff7888aec00000000000000000000000000000000000000000000000000000000815273ffffffffffffffffffffffffffffffffffffffff86811660048301523060248301527f0000000000000000000000000000000000000000000000000000000000000000169063f7888aec90604401602060405180830381865afa15801561087c573d6000803e3d6000fd5b505050506040513d601f19601f820116820180604052508101906108a09190613f1b565b91505b6104d98530868686866111c5565b60ff811660061415610902576000808584815181106108d2576108d2613d8a565b60200260200101518060200190518101906108ed9190613f34565b915091506108fb82826114d5565b5050610b54565b60ff8116600c141561094c5760008085848151811061092357610923613d8a565b602002602001015180602001905181019061093e9190613f6e565b915091506108fb82826115cb565b60ff811660071415610a6a5760008060008087868151811061097057610970613d8a565b602002602001015180602001905181019061098b9190613f9c565b935093509350935060008460001415610a5257826000815181106109b1576109b1613d8a565b60209081029190910101516040517f70a0823100000000000000000000000000000000000000000000000000000000815230600482015273ffffffffffffffffffffffffffffffffffffffff909116906370a0823190602401602060405180830381865afa158015610a27573d6000803e3d6000fd5b505050506040513d601f19601f82011682018060405250810190610a4b9190613f1b565b9450600190505b610a5f8585858585611630565b505050505050610b54565b60ff811660081415610ab0576000848381518110610a8a57610a8a613d8a565b6020026020010151806020019051810190610aa591906140cd565b90506108fb816118a4565b60ff811660091415610afc576000848381518110610ad057610ad0613d8a565b6020026020010151806020019051810190610aeb91906143fa565b9050610af681611bce565b50610b54565b60ff8116600a1415610b5457600080600080878681518110610b2057610b20613d8a565b6020026020010151806020019051810190610b3b91906146f7565b9350935093509350610b4f84848484612506565b505050505b506001016102c0565b5050505050565b6000807f000000000000000000000000000000000000000000000000000000000000000073ffffffffffffffffffffffffffffffffffffffff16630a512369898989604051602001610be1919060609190911b7fffffffffffffffffffffffffffffffffffffffff00000000000000000000000016815260140190565b60405160208183030381529060405287604051602001610c019190614875565b60405160208183030381529060405260405180606001604052808c81526020018b81526020018d604051602001610c63919060609190911b7fffffffffffffffffffffffffffffffffffffffff00000000000000000000000016815260140190565b6040516020818303038152906040528152506040518663ffffffff1660e01b8152600401610c959594939291906148b1565b6040805180830381865afa158015610cb1573d6000803e3d6000fd5b505050506040513d601f19601f82011682018060405250810190610cd59190614909565b90999098509650505050505050565b3373ffffffffffffffffffffffffffffffffffffffff7f00000000000000000000000000000000000000000000000000000000000000001614610d53576040517f8c66bf5600000000000000000000000000000000000000000000000000000000815260040160405180910390fd5b600080600080600085806020019051810190610d6f919061492d565b939850919650945092509050620186a06000815a1015610ea7577f000000000000000000000000000000000000000000000000000000000000000073ffffffffffffffffffffffffffffffffffffffff168a73ffffffffffffffffffffffffffffffffffffffff1614610dfd57610dfd73ffffffffffffffffffffffffffffffffffffffff8b16888b612889565b4715610e625760405173ffffffffffffffffffffffffffffffffffffffff8816904790600081818185875af1925050503d8060008114610e59576040519150601f19603f3d011682016040523d82523d6000602084013e610e5e565b606091505b5050505b5060405160018082529083907fd02bbeba90c0a3636769d1b8c9f07e2b5e4131b8fbcc2d6ba56054e20b98d75d9060200160405180910390a25050505050505061107e565b6000825a610eb59190614a02565b6040517f656f3d64000000000000000000000000000000000000000000000000000000008152909150309063656f3d64908390610efa908b908b908b90600401614adc565b600060405180830381600088803b158015610f1457600080fd5b5087f193505050508015610f26575060015b610fd4573d808015610f54576040519150601f19603f3d011682016040523d82523d6000602084013e610f59565b606091505b507f000000000000000000000000000000000000000000000000000000000000000073ffffffffffffffffffffffffffffffffffffffff168c73ffffffffffffffffffffffffffffffffffffffff1614610fce57610fce73ffffffffffffffffffffffffffffffffffffffff8d168a8d612889565b60019250505b47156110395760405173ffffffffffffffffffffffffffffffffffffffff8916904790600081818185875af1925050503d8060008114611030576040519150601f19603f3d011682016040523d82523d6000602084013e611035565b606091505b5050505b837fd02bbeba90c0a3636769d1b8c9f07e2b5e4131b8fbcc2d6ba56054e20b98d75d8360405161106d911515815260200190565b60405180910390a250505050505050505b505050505050565b6110e773ffffffffffffffffffffffffffffffffffffffff82167f00000000000000000000000000000000000000000000000000000000000000007fffffffffffffffffffffffffffffffffffffffffffffffffffffffffffffffff61295d565b50565b6040517f02b9446c00000000000000000000000000000000000000000000000000000000815273ffffffffffffffffffffffffffffffffffffffff87811660048301528681166024830152858116604483015260648201859052608482018490527f000000000000000000000000000000000000000000000000000000000000000016906302b9446c90839060a401604080518083038185885af1158015611196573d6000803e3d6000fd5b50505050506040513d601f19601f820116820180604052508101906111bb9190614909565b5050505050505050565b80156112a1576040517f97da6d3000000000000000000000000000000000000000000000000000000000815273ffffffffffffffffffffffffffffffffffffffff87811660048301528681166024830152858116604483015260648201859052608482018490527f000000000000000000000000000000000000000000000000000000000000000016906397da6d309060a40160408051808303816000875af1158015611276573d6000803e3d6000fd5b505050506040513d601f19601f8201168201806040525081019061129a9190614909565b505061107e565b8215611368576040517fda5139ca00000000000000000000000000000000000000000000000000000000815273ffffffffffffffffffffffffffffffffffffffff878116600483015260248201859052600060448301527f0000000000000000000000000000000000000000000000000000000000000000169063da5139ca90606401602060405180830381865afa158015611341573d6000803e3d6000fd5b505050506040513d601f19601f820116820180604052508101906113659190613f1b565b91505b6040517ff18d03cc00000000000000000000000000000000000000000000000000000000815273ffffffffffffffffffffffffffffffffffffffff878116600483015286811660248301528581166044830152606482018490527f0000000000000000000000000000000000000000000000000000000000000000169063f18d03cc90608401600060405180830381600087803b15801561140857600080fd5b505af115801561141c573d6000803e3d6000fd5b50505050505050505050565b61144a73ffffffffffffffffffffffffffffffffffffffff8416338484612adf565b505050565b73ffffffffffffffffffffffffffffffffffffffff83161561148c5761144a73ffffffffffffffffffffffffffffffffffffffff84168383612889565b60405173ffffffffffffffffffffffffffffffffffffffff83169082156108fc029083906000818181858888f193505050501580156114cf573d6000803e3d6000fd5b50505050565b6040517f70a0823100000000000000000000000000000000000000000000000000000000815230600482015273ffffffffffffffffffffffffffffffffffffffff831690632e1a7d4d9082906370a0823190602401602060405180830381865afa158015611547573d6000803e3d6000fd5b505050506040513d601f19601f8201168201806040525081019061156b9190613f1b565b6040518263ffffffff1660e01b815260040161158991815260200190565b600060405180830381600087803b1580156115a357600080fd5b505af11580156115b7573d6000803e3d6000fd5b505050506115c76000824761144f565b5050565b8173ffffffffffffffffffffffffffffffffffffffff1663d0e30db0826040518263ffffffff1660e01b81526004016000604051808303818588803b15801561161357600080fd5b505af1158015611627573d6000803e3d6000fd5b50505050505050565b60008061167f7f000000000000000000000000000000000000000000000000000000000000000088877f0000000000000000000000000000000000000000000000000000000000000000612b3d565b905080600182516116909190614a02565b815181106116a0576116a0613d8a565b6020026020010151915085821015611719576040517f08c379a000000000000000000000000000000000000000000000000000000000815260206004820152601760248201527f696e73756666696369656e742d616d6f756e742d6f757400000000000000000060448201526064015b60405180910390fd5b821561188f5761188f6117a27f00000000000000000000000000000000000000000000000000000000000000008760008151811061175957611759613d8a565b60200260200101518860018151811061177457611774613d8a565b60200260200101517f0000000000000000000000000000000000000000000000000000000000000000612ce4565b866000815181106117b5576117b5613d8a565b60209081029190910101516040517f70a0823100000000000000000000000000000000000000000000000000000000815230600482015273ffffffffffffffffffffffffffffffffffffffff909116906370a0823190602401602060405180830381865afa15801561182b573d6000803e3d6000fd5b505050506040513d601f19601f8201168201806040525081019061184f9190613f1b565b8760008151811061186257611862613d8a565b602002602001015173ffffffffffffffffffffffffffffffffffffffff166128899092919063ffffffff16565b61189a818686612dfe565b5095945050505050565b6000816020015160001415611ab05781516040517f70a0823100000000000000000000000000000000000000000000000000000000815230600482015260009173ffffffffffffffffffffffffffffffffffffffff16906370a0823190602401602060405180830381865afa158015611921573d6000803e3d6000fd5b505050506040513d601f19601f820116820180604052508101906119459190613f1b565b905061197683600001517f00000000000000000000000000000000000000000000000000000000000000008361144f565b7f000000000000000000000000000000000000000000000000000000000000000073ffffffffffffffffffffffffffffffffffffffff166302b9446c84600001517f000000000000000000000000000000000000000000000000000000000000000086606001516000815181106119ef576119ef613d8a565b6020908102919091010151516040517fffffffff0000000000000000000000000000000000000000000000000000000060e086901b16815273ffffffffffffffffffffffffffffffffffffffff93841660048201529183166024830152919091166044820152606481018490526000608482015260a40160408051808303816000875af1158015611a84573d6000803e3d6000fd5b505050506040513d601f19601f82011682018060405250810190611aa89190614909565b602085015250505b60608201515160005b81811015611b895783606001518181518110611ad757611ad7613d8a565b60200260200101516000015173ffffffffffffffffffffffffffffffffffffffff1663627dd56a85606001518381518110611b1457611b14613d8a565b6020026020010151602001516040518263ffffffff1660e01b8152600401611b3c9190614875565b6020604051808303816000875af1158015611b5b573d6000803e3d6000fd5b505050506040513d601f19601f82011682018060405250810190611b7f9190613f1b565b9250600101611ab9565b508260400151821015611bc8576040517fc9f52c7100000000000000000000000000000000000000000000000000000000815260040160405180910390fd5b50919050565b80515160005b81811015611dde577f000000000000000000000000000000000000000000000000000000000000000073ffffffffffffffffffffffffffffffffffffffff1663f18d03cc84600001518381518110611c2e57611c2e613d8a565b6020026020010151600001513086600001518581518110611c5157611c51613d8a565b60200260200101516020015187600001518681518110611c7357611c73613d8a565b6020908102919091010151606001516040517fffffffff0000000000000000000000000000000000000000000000000000000060e087901b16815273ffffffffffffffffffffffffffffffffffffffff94851660048201529284166024840152921660448201526064810191909152608401600060405180830381600087803b158015611cff57600080fd5b505af1158015611d13573d6000803e3d6000fd5b5050505082600001518181518110611d2d57611d2d613d8a565b60200260200101516020015173ffffffffffffffffffffffffffffffffffffffff1663627dd56a84600001518381518110611d6a57611d6a613d8a565b6020026020010151608001516040518263ffffffff1660e01b8152600401611d929190614875565b6020604051808303816000875af1158015611db1573d6000803e3d6000fd5b505050506040513d601f19601f82011682018060405250810190611dd59190613f1b565b50600101611bd4565b505060208101515160005b818110156121225760007f000000000000000000000000000000000000000000000000000000000000000073ffffffffffffffffffffffffffffffffffffffff1663f7888aec85602001518481518110611e4557611e45613d8a565b6020908102919091010151516040517fffffffff0000000000000000000000000000000000000000000000000000000060e084901b16815273ffffffffffffffffffffffffffffffffffffffff9091166004820152306024820152604401602060405180830381865afa158015611ec0573d6000803e3d6000fd5b505050506040513d601f19601f82011682018060405250810190611ee49190613f1b565b90506000611ef46008600a614c3f565b85602001518481518110611f0a57611f0a613d8a565b60200260200101516040015167ffffffffffffffff1683611f2b9190614c4e565b611f359190614c8b565b90507f000000000000000000000000000000000000000000000000000000000000000073ffffffffffffffffffffffffffffffffffffffff1663f18d03cc86602001518581518110611f8957611f89613d8a565b6020026020010151600001513088602001518781518110611fac57611fac613d8a565b60209081029190910181015101516040517fffffffff0000000000000000000000000000000000000000000000000000000060e086901b16815273ffffffffffffffffffffffffffffffffffffffff9384166004820152918316602483015291909116604482015260648101849052608401600060405180830381600087803b15801561203857600080fd5b505af115801561204c573d6000803e3d6000fd5b505050508460200151838151811061206657612066613d8a565b60200260200101516020015173ffffffffffffffffffffffffffffffffffffffff1663627dd56a866020015185815181106120a3576120a3613d8a565b6020026020010151606001516040518263ffffffff1660e01b81526004016120cb9190614875565b6020604051808303816000875af11580156120ea573d6000803e3d6000fd5b505050506040513d601f19601f8201168201806040525081019061210e9190613f1b565b50505061211b8160010190565b9050611de9565b505060408101515160005b8181101561144a5760007f000000000000000000000000000000000000000000000000000000000000000073ffffffffffffffffffffffffffffffffffffffff1663f7888aec8560400151848151811061218957612189613d8a565b6020908102919091010151516040517fffffffff0000000000000000000000000000000000000000000000000000000060e084901b16815273ffffffffffffffffffffffffffffffffffffffff9091166004820152306024820152604401602060405180830381865afa158015612204573d6000803e3d6000fd5b505050506040513d601f19601f820116820180604052508101906122289190613f1b565b90508360400151828151811061224057612240613d8a565b602002602001015160600151811015612285576040517fc9f52c7100000000000000000000000000000000000000000000000000000000815260040160405180910390fd5b8360400151828151811061229b5761229b613d8a565b602002602001015160400151156123e3577f000000000000000000000000000000000000000000000000000000000000000073ffffffffffffffffffffffffffffffffffffffff166397da6d30856040015184815181106122fe576122fe613d8a565b602002602001015160000151308760400151868151811061232157612321613d8a565b60209081029190910181015101516040517fffffffff0000000000000000000000000000000000000000000000000000000060e086901b16815273ffffffffffffffffffffffffffffffffffffffff93841660048201529183166024830152919091166044820152600060648201526084810184905260a40160408051808303816000875af11580156123b8573d6000803e3d6000fd5b505050506040513d601f19601f820116820180604052508101906123dc9190614909565b50506124fd565b7f000000000000000000000000000000000000000000000000000000000000000073ffffffffffffffffffffffffffffffffffffffff1663f18d03cc8560400151848151811061243557612435613d8a565b602002602001015160000151308760400151868151811061245857612458613d8a565b60209081029190910181015101516040517fffffffff0000000000000000000000000000000000000000000000000000000060e086901b16815273ffffffffffffffffffffffffffffffffffffffff9384166004820152918316602483015291909116604482015260648101849052608401600060405180830381600087803b1580156124e457600080fd5b505af11580156124f8573d6000803e3d6000fd5b505050505b5060010161212d565b600084610100015184848488610140015160405160200161252b959493929190614cc6565b6040516020818303038152906040529050620186a0856101200151101561257e576040517f1c26714c00000000000000000000000000000000000000000000000000000000815260040160405180910390fd5b7f000000000000000000000000000000000000000000000000000000000000000073ffffffffffffffffffffffffffffffffffffffff16639fbf10fc47876000015188604001518960600151338b60800151600014156126715760208c01516040517f70a0823100000000000000000000000000000000000000000000000000000000815230600482015273ffffffffffffffffffffffffffffffffffffffff909116906370a0823190602401602060405180830381865afa158015612648573d6000803e3d6000fd5b505050506040513d601f19601f8201168201806040525081019061266c9190613f1b565b612677565b8b608001515b8c60a0015160405180606001604052808f610120015181526020018f60c0015181526020018f60e001516040516020016126dc919060609190911b7fffffffffffffffffffffffffffffffffffffffff00000000000000000000000016815260140190565b6040516020818303038152906040528152508e60e0015160405160200161272e919060609190911b7fffffffffffffffffffffffffffffffffffffffff00000000000000000000000016815260140190565b6040516020818303038152906040528b6040518b63ffffffff1660e01b815260040161276299989796959493929190614d2e565b6000604051808303818588803b15801561277b57600080fd5b505af115801561278f573d6000803e3d6000fd5b50506040517fa87376e90000000000000000000000000000000000000000000000000000000081527e0100000000000000000000000000000000000000000000000000000000000060048201527f000000000000000000000000000000000000000000000000000000000000000073ffffffffffffffffffffffffffffffffffffffff16935063a87376e992506024019050600060405180830381600087803b15801561283b57600080fd5b505af115801561284f573d6000803e3d6000fd5b505050506101408501516040517fef89f27cad105cfe7c63f4a5c70e6b1392b571ff544a83de4bf71ceb46bacfee90600090a25050505050565b60405173ffffffffffffffffffffffffffffffffffffffff831660248201526044810182905261144a9084907fa9059cbb00000000000000000000000000000000000000000000000000000000906064015b604080517fffffffffffffffffffffffffffffffffffffffffffffffffffffffffffffffe08184030181529190526020810180517bffffffffffffffffffffffffffffffffffffffffffffffffffffffff167fffffffff000000000000000000000000000000000000000000000000000000009093169290921790915261303b565b8015806129fd57506040517fdd62ed3e00000000000000000000000000000000000000000000000000000000815230600482015273ffffffffffffffffffffffffffffffffffffffff838116602483015284169063dd62ed3e90604401602060405180830381865afa1580156129d7573d6000803e3d6000fd5b505050506040513d601f19601f820116820180604052508101906129fb9190613f1b565b155b612a89576040517f08c379a000000000000000000000000000000000000000000000000000000000815260206004820152603660248201527f5361666545524332303a20617070726f76652066726f6d206e6f6e2d7a65726f60448201527f20746f206e6f6e2d7a65726f20616c6c6f77616e6365000000000000000000006064820152608401611710565b60405173ffffffffffffffffffffffffffffffffffffffff831660248201526044810182905261144a9084907f095ea7b300000000000000000000000000000000000000000000000000000000906064016128db565b60405173ffffffffffffffffffffffffffffffffffffffff808516602483015283166044820152606481018290526114cf9085907f23b872dd00000000000000000000000000000000000000000000000000000000906084016128db565b6060600283511015612bab576040517f08c379a000000000000000000000000000000000000000000000000000000000815260206004820152601e60248201527f556e697377617056324c6962726172793a20494e56414c49445f5041544800006044820152606401611710565b825167ffffffffffffffff811115612bc557612bc561384e565b604051908082528060200260200182016040528015612bee578160200160208202803683370190505b5090508381600081518110612c0557612c05613d8a565b60200260200101818152505060005b60018451612c229190614a02565b811015612cdb57600080612c7688878581518110612c4257612c42613d8a565b602002602001015188866001612c589190614db9565b81518110612c6857612c68613d8a565b60200260200101518861314a565b91509150612c9e848481518110612c8f57612c8f613d8a565b6020026020010151838361324b565b84612caa856001614db9565b81518110612cba57612cba613d8a565b60200260200101818152505050508080612cd390614dd1565b915050612c14565b50949350505050565b6000806000612cf386866133c5565b6040517fffffffffffffffffffffffffffffffffffffffff000000000000000000000000606084811b8216602084015283901b166034820152919350915087906048016040516020818303038152906040528051906020012085604051602001612dbd939291907fff00000000000000000000000000000000000000000000000000000000000000815260609390931b7fffffffffffffffffffffffffffffffffffffffff0000000000000000000000001660018401526015830191909152603582015260550190565b604080517fffffffffffffffffffffffffffffffffffffffffffffffffffffffffffffffe08184030181529190528051602090910120979650505050505050565b60005b60018351612e0f9190614a02565b8110156114cf57600080848381518110612e2b57612e2b613d8a565b602002602001015185846001612e419190614db9565b81518110612e5157612e51613d8a565b6020026020010151915091506000612e6983836133c5565b509050600087612e7a866001614db9565b81518110612e8a57612e8a613d8a565b602002602001015190506000808373ffffffffffffffffffffffffffffffffffffffff168673ffffffffffffffffffffffffffffffffffffffff1614612ed257826000612ed6565b6000835b91509150600060028a51612eea9190614a02565b8810612ef65788612f37565b612f377f0000000000000000000000000000000000000000000000000000000000000000878c612f278c6002614db9565b8151811061177457611774613d8a565b9050612f857f000000000000000000000000000000000000000000000000000000000000000088887f0000000000000000000000000000000000000000000000000000000000000000612ce4565b73ffffffffffffffffffffffffffffffffffffffff1663022c0d9f84848460006040519080825280601f01601f191660200182016040528015612fcf576020820181803683370190505b506040518563ffffffff1660e01b8152600401612fef9493929190614e0a565b600060405180830381600087803b15801561300957600080fd5b505af115801561301d573d6000803e3d6000fd5b5050505050505050505050808061303390614dd1565b915050612e01565b600061309d826040518060400160405280602081526020017f5361666545524332303a206c6f772d6c6576656c2063616c6c206661696c65648152508573ffffffffffffffffffffffffffffffffffffffff1661354a9092919063ffffffff16565b90508051600014806130be5750808060200190518101906130be9190614e45565b61144a576040517f08c379a000000000000000000000000000000000000000000000000000000000815260206004820152602a60248201527f5361666545524332303a204552433230206f7065726174696f6e20646964206e60448201527f6f742073756363656564000000000000000000000000000000000000000000006064820152608401611710565b600080600061315986866133c5565b50905060008061316b89898989612ce4565b73ffffffffffffffffffffffffffffffffffffffff16630902f1ac6040518163ffffffff1660e01b8152600401606060405180830381865afa1580156131b5573d6000803e3d6000fd5b505050506040513d601f19601f820116820180604052508101906131d99190614e7e565b506dffffffffffffffffffffffffffff1691506dffffffffffffffffffffffffffff1691508273ffffffffffffffffffffffffffffffffffffffff168873ffffffffffffffffffffffffffffffffffffffff161461323857808261323b565b81815b909a909950975050505050505050565b60008084116132dc576040517f08c379a000000000000000000000000000000000000000000000000000000000815260206004820152602b60248201527f556e697377617056324c6962726172793a20494e53554646494349454e545f4960448201527f4e5055545f414d4f554e540000000000000000000000000000000000000000006064820152608401611710565b6000831180156132ec5750600082115b613378576040517f08c379a000000000000000000000000000000000000000000000000000000000815260206004820152602860248201527f556e697377617056324c6962726172793a20494e53554646494349454e545f4c60448201527f49515549444954590000000000000000000000000000000000000000000000006064820152608401611710565b6000613386856103e5613561565b905060006133948285613561565b905060006133ae836133a8886103e8613561565b906135f1565b90506133ba8183614c8b565b979650505050505050565b6000808273ffffffffffffffffffffffffffffffffffffffff168473ffffffffffffffffffffffffffffffffffffffff161415613484576040517f08c379a000000000000000000000000000000000000000000000000000000000815260206004820152602560248201527f556e697377617056324c6962726172793a204944454e544943414c5f4144445260448201527f45535345530000000000000000000000000000000000000000000000000000006064820152608401611710565b8273ffffffffffffffffffffffffffffffffffffffff168473ffffffffffffffffffffffffffffffffffffffff16106134be5782846134c1565b83835b909250905073ffffffffffffffffffffffffffffffffffffffff8216613543576040517f08c379a000000000000000000000000000000000000000000000000000000000815260206004820152601e60248201527f556e697377617056324c6962726172793a205a45524f5f4144445245535300006044820152606401611710565b9250929050565b60606135598484600085613669565b949350505050565b6000811580613585575082826135778183614c4e565b92506135839083614c8b565b145b6135eb576040517f08c379a000000000000000000000000000000000000000000000000000000000815260206004820152601460248201527f64732d6d6174682d6d756c2d6f766572666c6f770000000000000000000000006044820152606401611710565b92915050565b6000826135fe8382614db9565b91508110156135eb576040517f08c379a000000000000000000000000000000000000000000000000000000000815260206004820152601460248201527f64732d6d6174682d6164642d6f766572666c6f770000000000000000000000006044820152606401611710565b6060824710156136fb576040517f08c379a000000000000000000000000000000000000000000000000000000000815260206004820152602660248201527f416464726573733a20696e73756666696369656e742062616c616e636520666f60448201527f722063616c6c00000000000000000000000000000000000000000000000000006064820152608401611710565b6000808673ffffffffffffffffffffffffffffffffffffffff1685876040516137249190614ece565b60006040518083038185875af1925050503d8060008114613761576040519150601f19603f3d011682016040523d82523d6000602084013e613766565b606091505b50915091506133ba87838387606083156138055782516137fe5773ffffffffffffffffffffffffffffffffffffffff85163b6137fe576040517f08c379a000000000000000000000000000000000000000000000000000000000815260206004820152601d60248201527f416464726573733a2063616c6c20746f206e6f6e2d636f6e74726163740000006044820152606401611710565b5081613559565b613559838381511561381a5781518083602001fd5b806040517f08c379a00000000000000000000000000000000000000000000000000000000081526004016117109190614875565b7f4e487b7100000000000000000000000000000000000000000000000000000000600052604160045260246000fd5b6040516080810167ffffffffffffffff811182821017156138a0576138a061384e565b60405290565b6040805190810167ffffffffffffffff811182821017156138a0576138a061384e565b6040516060810167ffffffffffffffff811182821017156138a0576138a061384e565b60405160a0810167ffffffffffffffff811182821017156138a0576138a061384e565b604051610160810167ffffffffffffffff811182821017156138a0576138a061384e565b604051601f82017fffffffffffffffffffffffffffffffffffffffffffffffffffffffffffffffe016810167ffffffffffffffff8111828210171561397a5761397a61384e565b604052919050565b600067ffffffffffffffff82111561399c5761399c61384e565b5060051b60200190565b60ff811681146110e757600080fd5b600082601f8301126139c657600080fd5b813560206139db6139d683613982565b613933565b82815260059290921b840181019181810190868411156139fa57600080fd5b8286015b84811015613a1557803583529183019183016139fe565b509695505050505050565b600067ffffffffffffffff821115613a3a57613a3a61384e565b50601f017fffffffffffffffffffffffffffffffffffffffffffffffffffffffffffffffe01660200190565b600082601f830112613a7757600080fd5b8135613a856139d682613a20565b818152846020838601011115613a9a57600080fd5b816020850160208301376000918101602001919091529392505050565b600082601f830112613ac857600080fd5b81356020613ad86139d683613982565b82815260059290921b84018101918181019086841115613af757600080fd5b8286015b84811015613a1557803567ffffffffffffffff811115613b1b5760008081fd5b613b298986838b0101613a66565b845250918301918301613afb565b600080600060608486031215613b4c57600080fd5b833567ffffffffffffffff80821115613b6457600080fd5b818601915086601f830112613b7857600080fd5b81356020613b886139d683613982565b82815260059290921b8401810191818101908a841115613ba757600080fd5b948201945b83861015613bce578535613bbf816139a6565b82529482019490820190613bac565b97505087013592505080821115613be457600080fd5b613bf0878388016139b5565b93506040860135915080821115613c0657600080fd5b50613c1386828701613ab7565b9150509250925092565b61ffff811681146110e757600080fd5b73ffffffffffffffffffffffffffffffffffffffff811681146110e757600080fd5b60008060008060008060c08789031215613c6857600080fd5b8635613c7381613c1d565b95506020870135613c83816139a6565b94506040870135613c9381613c2d565b9350606087013592506080870135915060a087013567ffffffffffffffff811115613cbd57600080fd5b613cc989828a01613a66565b9150509295509295509295565b60008060008060008060c08789031215613cef57600080fd5b8635613cfa81613c1d565b9550602087013567ffffffffffffffff80821115613d1757600080fd5b613d238a838b01613a66565b96506040890135955060608901359150613d3c82613c2d565b9093506080880135925060a08801359080821115613d5957600080fd5b50613cc989828a01613a66565b600060208284031215613d7857600080fd5b8135613d8381613c2d565b9392505050565b7f4e487b7100000000000000000000000000000000000000000000000000000000600052603260045260246000fd5b8051613dc481613c2d565b919050565b80518015158114613dc457600080fd5b600080600080600060a08688031215613df157600080fd5b8551613dfc81613c2d565b9450613e0a60208701613dc9565b93506040860151613e1a816139a6565b6060870151608090970151959894975095949392505050565b60008060008060808587031215613e4957600080fd5b8451613e5481613c2d565b6020860151909450613e6581613c2d565b6040860151606090960151949790965092505050565b600080600080600060a08688031215613e9357600080fd5b8551613e9e81613c2d565b6020870151909550613eaf81613c2d565b6040870151606088015191955093509150613ecc60808701613dc9565b90509295509295909350565b600080600060608486031215613eed57600080fd5b8351613ef881613c2d565b6020850151909350613f0981613c2d565b80925050604084015190509250925092565b600060208284031215613f2d57600080fd5b5051919050565b60008060408385031215613f4757600080fd5b8251613f5281613c2d565b6020840151909250613f6381613c2d565b809150509250929050565b60008060408385031215613f8157600080fd5b8251613f8c81613c2d565b6020939093015192949293505050565b60008060008060808587031215613fb257600080fd5b845193506020808601519350604086015167ffffffffffffffff811115613fd857600080fd5b8601601f81018813613fe957600080fd5b8051613ff76139d682613982565b81815260059190911b8201830190838101908a83111561401657600080fd5b928401925b8284101561403d57835161402e81613c2d565b8252928401929084019061401b565b809650505050505061405160608601613db9565b905092959194509250565b60005b8381101561407757818101518382015260200161405f565b838111156114cf5750506000910152565b600082601f83011261409957600080fd5b81516140a76139d682613a20565b8181528460208386010111156140bc57600080fd5b61355982602083016020870161405c565b600060208083850312156140e057600080fd5b825167ffffffffffffffff808211156140f857600080fd5b908401906080828703121561410c57600080fd5b61411461387d565b825161411f81613c2d565b815282840151848201526040808401518183015260608401518381111561414557600080fd5b80850194505087601f85011261415a57600080fd5b83516141686139d682613982565b81815260059190911b8501860190868101908a83111561418757600080fd5b8787015b83811015614221578051878111156141a35760008081fd5b8801808d037fffffffffffffffffffffffffffffffffffffffffffffffffffffffffffffffe0018613156141d75760008081fd5b6141df6138a6565b8a8201516141ec81613c2d565b815281870151898111156142005760008081fd5b61420e8f8d83860101614088565b828d01525084525091880191880161418b565b506060850152509198975050505050505050565b600082601f83011261424657600080fd5b815160206142566139d683613982565b82815260059290921b8401810191818101908684111561427557600080fd5b8286015b84811015613a1557805167ffffffffffffffff8082111561429a5760008081fd5b81890191506080807fffffffffffffffffffffffffffffffffffffffffffffffffffffffffffffffe0848d030112156142d35760008081fd5b6142db61387d565b878401516142e881613c2d565b81526040848101516142f981613c2d565b828a015260608581015185811681146143125760008081fd5b8383015292850151928484111561432b57600091508182fd5b6143398e8b86890101614088565b90830152508652505050918301918301614279565b600082601f83011261435f57600080fd5b8151602061436f6139d683613982565b82815260079290921b8401810191818101908684111561438e57600080fd5b8286015b84811015613a1557608081890312156143ab5760008081fd5b6143b361387d565b81516143be81613c2d565b8152818501516143cd81613c2d565b8186015260406143de838201613dc9565b9082015260608281015190820152835291830191608001614392565b6000602080838503121561440d57600080fd5b825167ffffffffffffffff8082111561442557600080fd5b908401906060828703121561443957600080fd5b6144416138c9565b82518281111561445057600080fd5b8301601f8101881361446157600080fd5b805161446f6139d682613982565b81815260059190911b8201860190868101908a83111561448e57600080fd5b8784015b83811015614556578051878111156144a957600080fd5b850160a0818e037fffffffffffffffffffffffffffffffffffffffffffffffffffffffffffffffe00112156144dd57600080fd5b6144e56138ec565b8a8201516144f281613c2d565b8152604082015161450281613c2d565b818c015261451260608301613dc9565b60408201526080820151606082015260a0820151898111156145345760008081fd5b6145428f8d83860101614088565b608083015250845250918801918801614492565b508452505050828401518281111561456d57600080fd5b61457988828601614235565b8583015250604083015193508184111561459257600080fd5b61459e8785850161434e565b60408201529695505050505050565b8051613dc481613c1d565b600082601f8301126145c957600080fd5b815160206145d96139d683613982565b82815260059290921b840181019181810190868411156145f857600080fd5b8286015b84811015613a1557805161460f816139a6565b83529183019183016145fc565b600082601f83011261462d57600080fd5b8151602061463d6139d683613982565b82815260059290921b8401810191818101908684111561465c57600080fd5b8286015b84811015613a155780518352918301918301614660565b600082601f83011261468857600080fd5b815160206146986139d683613982565b82815260059290921b840181019181810190868411156146b757600080fd5b8286015b84811015613a1557805167ffffffffffffffff8111156146db5760008081fd5b6146e98986838b0101614088565b8452509183019183016146bb565b6000806000808486036101c081121561470f57600080fd5b6101608082121561471f57600080fd5b61472761390f565b9150614732876145ad565b825261474060208801613db9565b602083015260408701516040830152606087015160608301526080870151608083015260a087015160a083015260c087015160c083015261478360e08801613db9565b60e0830152610100614796818901613db9565b908301526101208781015190830152610140808801519083015286015190945067ffffffffffffffff808211156147cc57600080fd5b6147d8888389016145b8565b94506101808701519150808211156147ef57600080fd5b6147fb8883890161461c565b93506101a087015191508082111561481257600080fd5b5061481f87828801614677565b91505092959194509250565b6000815180845261484381602086016020860161405c565b601f017fffffffffffffffffffffffffffffffffffffffffffffffffffffffffffffffe0169290920160200192915050565b602081526000613d83602083018461482b565b80518252602081015160208301526000604082015160606040850152613559606085018261482b565b61ffff8616815260ff8516602082015260a0604082015260006148d760a083018661482b565b82810360608401526148e9818661482b565b905082810360808401526148fd8185614888565b98975050505050505050565b6000806040838503121561491c57600080fd5b505080516020909101519092909150565b600080600080600060a0868803121561494557600080fd5b855161495081613c2d565b602087015190955067ffffffffffffffff8082111561496e57600080fd5b61497a89838a016145b8565b9550604088015191508082111561499057600080fd5b61499c89838a0161461c565b945060608801519150808211156149b257600080fd5b506149bf88828901614677565b925050608086015190509295509295909350565b7f4e487b7100000000000000000000000000000000000000000000000000000000600052601160045260246000fd5b600082821015614a1457614a146149d3565b500390565b600081518084526020808501945080840160005b83811015614a4c57815160ff1687529582019590820190600101614a2d565b509495945050505050565b600081518084526020808501945080840160005b83811015614a4c57815187529582019590820190600101614a6b565b600081518084526020808501808196508360051b8101915082860160005b85811015614acf578284038952614abd84835161482b565b98850198935090840190600101614aa5565b5091979650505050505050565b606081526000614aef6060830186614a19565b8281036020840152614b018186614a57565b90508281036040840152614b158185614a87565b9695505050505050565b600181815b80851115614b7857817fffffffffffffffffffffffffffffffffffffffffffffffffffffffffffffffff04821115614b5e57614b5e6149d3565b80851615614b6b57918102915b93841c9390800290614b24565b509250929050565b600082614b8f575060016135eb565b81614b9c575060006135eb565b8160018114614bb25760028114614bbc57614bd8565b60019150506135eb565b60ff841115614bcd57614bcd6149d3565b50506001821b6135eb565b5060208310610133831016604e8410600b8410161715614bfb575081810a6135eb565b614c058383614b1f565b807fffffffffffffffffffffffffffffffffffffffffffffffffffffffffffffffff04821115614c3757614c376149d3565b029392505050565b6000613d8360ff841683614b80565b6000817fffffffffffffffffffffffffffffffffffffffffffffffffffffffffffffffff0483118215151615614c8657614c866149d3565b500290565b600082614cc1577f4e487b7100000000000000000000000000000000000000000000000000000000600052601260045260246000fd5b500490565b73ffffffffffffffffffffffffffffffffffffffff8616815260a060208201526000614cf560a0830187614a19565b8281036040840152614d078187614a57565b90508281036060840152614d1b8186614a87565b9150508260808301529695505050505050565b600061012061ffff8c1683528a602084015289604084015273ffffffffffffffffffffffffffffffffffffffff891660608401528760808401528660a08401528060c0840152614d8081840187614888565b905082810360e0840152614d94818661482b565b9050828103610100840152614da9818561482b565b9c9b505050505050505050505050565b60008219821115614dcc57614dcc6149d3565b500190565b60007fffffffffffffffffffffffffffffffffffffffffffffffffffffffffffffffff821415614e0357614e036149d3565b5060010190565b84815283602082015273ffffffffffffffffffffffffffffffffffffffff83166040820152608060608201526000614b15608083018461482b565b600060208284031215614e5757600080fd5b613d8382613dc9565b80516dffffffffffffffffffffffffffff81168114613dc457600080fd5b600080600060608486031215614e9357600080fd5b614e9c84614e60565b9250614eaa60208501614e60565b9150604084015163ffffffff81168114614ec357600080fd5b809150509250925092565b60008251614ee081846020870161405c565b919091019291505056fea2646970667358221220fa7fdcc95e227b45d7c24ec942b5be111b48c74b23f3dfeca040f109ed95abc564736f6c634300080b0033",
  "linkReferences": {},
  "deployedLinkReferences": {}
}