{
  "_format": "hh-sol-artifact-1",
  "contractName": "StargateFeeV04Extraction",
  "sourceName": "contracts/misc/StargateFeeV04Extraction.sol",
  "abi": [
    {
      "inputs": [],
      "stateMutability": "nonpayable",
      "type": "constructor"
    },
    {
      "inputs": [],
      "name": "DELTA_1",
      "outputs": [
        {
          "internalType": "uint256",
          "name": "",
          "type": "uint256"
        }
      ],
      "stateMutability": "view",
      "type": "function"
    },
    {
      "inputs": [],
      "name": "DELTA_2",
      "outputs": [
        {
          "internalType": "uint256",
          "name": "",
          "type": "uint256"
        }
      ],
      "stateMutability": "view",
      "type": "function"
    },
    {
      "inputs": [],
      "name": "DENOMINATOR",
      "outputs": [
        {
          "internalType": "uint256",
          "name": "",
          "type": "uint256"
        }
      ],
      "stateMutability": "view",
      "type": "function"
    },
    {
      "inputs": [],
      "name": "FIFTY_PERCENT",
      "outputs": [
        {
          "internalType": "uint256",
          "name": "",
          "type": "uint256"
        }
      ],
      "stateMutability": "view",
      "type": "function"
    },
    {
      "inputs": [],
      "name": "LAMBDA_1",
      "outputs": [
        {
          "internalType": "uint256",
          "name": "",
          "type": "uint256"
        }
      ],
      "stateMutability": "view",
      "type": "function"
    },
    {
      "inputs": [],
      "name": "LAMBDA_2",
      "outputs": [
        {
          "internalType": "uint256",
          "name": "",
          "type": "uint256"
        }
      ],
      "stateMutability": "view",
      "type": "function"
    },
    {
      "inputs": [],
      "name": "LP_FEE",
      "outputs": [
        {
          "internalType": "uint256",
          "name": "",
          "type": "uint256"
        }
      ],
      "stateMutability": "view",
      "type": "function"
    },
    {
      "inputs": [],
      "name": "PROTOCOL_FEE",
      "outputs": [
        {
          "internalType": "uint256",
          "name": "",
          "type": "uint256"
        }
      ],
      "stateMutability": "view",
      "type": "function"
    },
    {
      "inputs": [],
      "name": "PROTOCOL_SUBSIDY",
      "outputs": [
        {
          "internalType": "uint256",
          "name": "",
          "type": "uint256"
        }
      ],
      "stateMutability": "view",
      "type": "function"
    },
    {
      "inputs": [],
      "name": "SIXTY_PERCENT",
      "outputs": [
        {
          "internalType": "uint256",
          "name": "",
          "type": "uint256"
        }
      ],
      "stateMutability": "view",
      "type": "function"
    },
    {
      "inputs": [
        {
          "components": [
            {
              "internalType": "uint256",
              "name": "currentAssetSD",
              "type": "uint256"
            },
            {
              "internalType": "uint256",
              "name": "lpAsset",
              "type": "uint256"
            },
            {
              "internalType": "uint256",
              "name": "eqFeePool",
              "type": "uint256"
            },
            {
              "internalType": "uint256",
              "name": "idealBalance",
              "type": "uint256"
            },
            {
              "internalType": "uint256",
              "name": "currentBalance",
              "type": "uint256"
            },
            {
              "internalType": "bool",
              "name": "allocPointIsPositive",
              "type": "bool"
            }
          ],
          "internalType": "struct BridgeState",
          "name": "state",
          "type": "tuple"
        },
        {
          "internalType": "bool",
          "name": "whitelisted",
          "type": "bool"
        },
        {
          "internalType": "uint256",
          "name": "amountSD",
          "type": "uint256"
        }
      ],
      "name": "getFees",
      "outputs": [
        {
          "components": [
            {
              "internalType": "uint256",
              "name": "eqFee",
              "type": "uint256"
            },
            {
              "internalType": "uint256",
              "name": "eqReward",
              "type": "uint256"
            },
            {
              "internalType": "uint256",
              "name": "lpFee",
              "type": "uint256"
            },
            {
              "internalType": "uint256",
              "name": "protocolFee",
              "type": "uint256"
            }
          ],
          "internalType": "struct Fees",
          "name": "s",
          "type": "tuple"
        }
      ],
      "stateMutability": "pure",
      "type": "function"
    }
  ],
  "bytecode": "0x608060405234801561001057600080fd5b50610940806100206000396000f3fe608060405234801561001057600080fd5b50600436106100c95760003560e01c80635e3f2727116100815780638afbd3781161005b5780638afbd37814610144578063918f86741461018a578063a810de6c1461019957600080fd5b80635e3f27271461012a5780637ba5c12f14610137578063886a9c501461010d57600080fd5b80631e04cbf3116100b25780631e04cbf3146100fe5780633dad0dd51461010d578063518a9f9f1461011c57600080fd5b8063012a1c2d146100ce5780630b4501fd146100f0575b600080fd5b6100dd670dd280b9144a000081565b6040519081526020015b60405180910390f35b6100dd6601c6bf5263400081565b6100dd6706f05b59d3b2000081565b6100dd670853a0d2313c000081565b6100dd66b1a2bc2ec5000081565b6100dd655af3107a400081565b6100dd651b48eb57e00081565b610157610152366004610764565b6101a7565b6040516100e791908151815260208083015190820152604080830151908201526060918201519181019190915260800190565b6100dd670de0b6b3a764000081565b6100dd660e35fa931a000081565b6101d26040518060800160405280600081526020016000815260200160008152602001600081525090565b6101dc848361021c565b602082015260006101ed85846102db565b908352905083156101fe5750610215565b6102098584836104aa565b60408401526060830152505b9392505050565b60008260000151836020015111610235575060006102d5565b825160208401516000916102499190610625565b9050604b610273856020015161026d6064886000015161063190919063ffffffff16565b9061063d565b1080156102935750610286816002610631565b610291846064610631565b115b156102ce576102b38161026d85876040015161063190919063ffffffff16565b915083604001518211156102c957836040015191505b6102d3565b600091505b505b92915050565b60808201516060830151600091829184821015610359576040517f08c379a000000000000000000000000000000000000000000000000000000000815260206004820152601c60248201527f53746172676174653a206e6f7420656e6f7567682062616c616e63650000000060448201526064015b60405180910390fd5b60006103658387610625565b90506000610387670de0b6b3a764000061026d85670853a0d2313c0000610631565b905060006103a8670de0b6b3a764000061026d8666b1a2bc2ec50000610631565b90506000808385106103da576103d0670de0b6b3a764000061026d8c651b48eb57e000610631565b915081905061049a565b8285106104125760008488106103f057846103f2565b875b905061040a660e35fa931a000060008787858b610649565b92505061049a565b82871061046f576000848810610428578461042a565b875b905061044c610445660e35fa931a000060008888868a610649565b8490610743565b925061040a610445670dd280b9144a0000660e35fa931a0000876000898c610649565b610497610490670dd280b9144a0000660e35fa931a00008660008c8b610649565b8390610743565b91505b909a909950975050505050505050565b6000806104d4836104ce670de0b6b3a764000061026d886601c6bf52634000610631565b90610625565b91506104f2670de0b6b3a764000061026d86655af3107a4000610631565b90508460a001511561050f576105088282610743565b9150600090505b602085015161051d5761061d565b600061054a670de0b6b3a764000061026d670853a0d2313c0000896060015161063190919063ffffffff16565b60808701516105599087610625565b1190506000610585876020015161026d670de0b6b3a76400008a6000015161063190919063ffffffff16565b90506706f05b59d3b20000811115801561059c5750815b156105ae57600093506000925061061a565b670853a0d2313c0000811080156105c25750815b1561061a5760006105e6600a6105e0846706f05b59d3b20000610625565b90610631565b90506105fe670de0b6b3a764000061026d8784610631565b9450610616670de0b6b3a764000061026d8684610631565b9350505b50505b935093915050565b60006102158284610863565b6000610215828461087a565b600061021582846108b7565b600083821015801561065b5750848311155b6106c1576040517f08c379a000000000000000000000000000000000000000000000000000000000815260206004820152601e60248201527f53746172676174653a2062616c616e6365206f7574206f6620626f756e6400006044820152606401610350565b60006106cd8686610625565b905060006106ed886106e78461026d8d6105e08d8c610625565b90610743565b90506000610707896106e78561026d8e6105e08e8c610625565b905060006107158787610625565b9050610734670de0b6b3a764000061026d600281856105e08989610743565b9b9a5050505050505050505050565b600061021582846108f2565b8035801515811461075f57600080fd5b919050565b600080600083850361010081121561077b57600080fd5b60c081121561078957600080fd5b5060405160c0810181811067ffffffffffffffff821117156107d4577f4e487b7100000000000000000000000000000000000000000000000000000000600052604160045260246000fd5b8060405250843581526020850135602082015260408501356040820152606085013560608201526080850135608082015261081160a0860161074f565b60a0820152925061082460c0850161074f565b915060e084013590509250925092565b7f4e487b7100000000000000000000000000000000000000000000000000000000600052601160045260246000fd5b60008282101561087557610875610834565b500390565b6000817fffffffffffffffffffffffffffffffffffffffffffffffffffffffffffffffff04831182151516156108b2576108b2610834565b500290565b6000826108ed577f4e487b7100000000000000000000000000000000000000000000000000000000600052601260045260246000fd5b500490565b6000821982111561090557610905610834565b50019056fea2646970667358221220e5e69a3a88ba332524548e420ed3b254902dbbf14a36b6d7779e02d044c3fdc364736f6c634300080b0033",
  "linkReferences": {},
  "deployedLinkReferences": {}
}